:020000040000FA
:100000000C9458010C9489010C9489010C94890179
:100010000C9489010C9489010C9489010C94890138
:100020000C9489010C9489010C9489010C94890128
:100030000C9489010C942B050C9489010C94890172
:100040000C9489010C94BF060C9489010C948901CD
:100050000C9489010C9489010C9489010C94EB0592
:100060000C9489010C94B5050C948B050C948901B2
:100070000C9489010C9489010C9489010C948901D8
:100080000C9491060C9489010C9489010C948901BB
:100090000C9489010C9489010C9489010C948901B8
:1000A0000C9489010C9489010C9463060C948901C9
:1000B0000C9489010C9489010C9489010C943506E7
:1000C0000C9489010C9489010C9489010C94890188
:1000D0000C9489010C9489010C9489010C94890178
:1000E0000C9489010C94FA090C94BB090C94E3015B
:1000F0000C9476020C9426030C940A030C948B0146
:100100000C94CF010C9404030C94EB020C94F109B1
:100110000C9400030C94F1010C9418030C94140A31
:100120000C94F3020C94C0010C944D0A0C94E5025B
:100130000C94FA020C94EF020C94740A0C940E03C3
:100140000C94DB090C94400A0C94330A0C941C03A5
:100150000C94670A0C94E8090C94210A0C94320759
:100160000C9429020C945A0A0C94CE090C94070A98
:100170000C9412030C9425030C9420030C94B509E1
:100180000C942A030C94F7020C94C109000021007E
:10019000240027002A002D00300033000101000058
:1001A000040107010A0100002200250028002B009D
:1001B0002E003100340002010000050108010B018E
:1001C0000200000A0B02090C0D0E080703040100CF
:1001D000000000000000000000000000000000001F
:1001E00000000000000000000000000000121110DC
:1001F00000000000000000000000000000000000FF
:10020000000000000000000000200023002600295C
:10021000002C002F0032000001000003010601093C
:100220000105050505070508080808020202020A7B
:100230000A08080404040401010101010101010389
:1002400003030303030303040707070C0C0C0C0C44
:100250000C0C0C0202020206060606060606060B37
:100260000B0B0B0B0B0B0B010210202008081020AE
:100270004010204080020102010804020101020432
:1002800008102040808040201008040201800402F1
:100290000180402010080402010804020101020448
:1002A000081020408001020408102040800032071E
:1002B00011241FBECFEFD1E2DEBFCDBF00E00CBFE7
:1002C00012E0A0E0B2E0EAE3F3E200E00BBF02C01C
:1002D00007900D92A632B107D9F724E0A6E2B2E06A
:1002E00001C01D92A830B207E1F711E0C8E5D1E0E6
:1002F00000E006C021970109802FFE010E948C11A9
:10030000C735D10780E00807A9F70E9497070C942A
:100310009B110C940000AF92BF92CF92DF92EF92AC
:10032000FF920F931F93CF93DF936C017B018B019F
:10033000040F151FEB015E01AE18BF08C017D107EF
:1003400059F06991D601ED91FC910190F081E02D79
:10035000C6011995892B79F7C501DF91CF911F91BE
:100360000F91FF90EF90DF90CF90BF90AF900895E6
:1003700042E050E063E272E082EC92E00C948B0188
:10038000FC01538D448D252F30E0842F90E0821B9B
:10039000930B541710F0CF96089501970895FC0120
:1003A000918D828D981761F0A28DAE0FBF2FB11D78
:1003B0005D968C91928D9F5F9F73928F90E00895D0
:1003C0008FEF9FEF0895FC01918D828D981731F08A
:1003D000828DE80FF11D858D90E008958FEF9FEFDE
:1003E0000895FC01918D228D892F90E0805C9F4FB4
:1003F000821B91098F739927089582EC92E00E94E5
:10040000F10121E0892B09F420E0822F0895FC01FD
:10041000A48DA80FB92FB11DA35ABF4F2C91848D65
:1004200090E001968F739927848FA689B7892C93C2
:10043000A089B1898C91837080648C93938D848D15
:10044000981306C00288F389E02D80818F7D808318
:100450000895EF92FF920F931F93CF93DF93EC01D8
:1004600081E0888F9B8D8C8D98131AC0E889F9895B
:10047000808185FF15C09FB7F894EE89FF8960835E
:10048000E889F98980818370806480839FBF81E0DF
:1004900090E0DF91CF911F910F91FF90EF90089521
:1004A000F62E0B8D10E00F5F1F4F0F731127E02EFC
:1004B0008C8D8E110CC00FB607FCFACFE889F98934
:1004C000808185FFF5CFCE010E940702F1CFEB8D31
:1004D000EC0FFD2FF11DE35AFF4FF0829FB7F89408
:1004E0000B8FEA89FB8980818062CFCFCF93DF9326
:1004F000EC01888D8823B9F0AA89BB89E889F9893C
:100500008C9185FD03C0808186FD0DC00FB607FC70
:10051000F7CF8C9185FFF2CF808185FFEDCFCE01A3
:100520000E940702E9CFDF91CF91089580E090E02B
:10053000892B29F00E94FD0181110E94000080E0BA
:1005400090E0892B49F080E090E0892B29F00E940F
:10055000000081110E94000080E090E0892B49F0AA
:1005600080E090E0892B29F00E94000081110E9418
:10057000000080E090E0892B49F080E090E0892B3A
:1005800029F00E94000081110C9400000895815010
:10059000823108F05AC0E82FF0E08827ED52FD4F75
:1005A0008F4F0C948C11F302F702E502EB02EF027D
:1005B0002503FA02000304030A030E0312031803BF
:1005C0001C032503200326032A03809180008F77D4
:1005D000809380000895809180008F7DF9CF809175
:1005E0008000877FF5CF84B58F7784BD089584B56B
:1005F0008F7DFBCF8091B0008F778093B0000895FE
:100600008091B0008F7DF9CF809190008F7780939B
:1006100090000895809190008F7DF9CF8091900097
:10062000877FF5CF8091A0008F778093A0000895F9
:100630008091A0008F7DF9CF8091A000877FF5CFBA
:10064000809120018F77809320010895809120016F
:100650008F7DF9CF80912001877FF5CF1F93CF93B6
:10066000DF93282F30E0F901EF53FE4F8491F90119
:10067000E959FD4FD491F901EF5DFD4FC491CC23B1
:10068000A9F0162F81110E94C702EC2FF0E0EE0FA7
:10069000FF1FEA55FE4FA591B4918FB7F894EC91E6
:1006A000111108C0D095DE23DC938FBFDF91CF916D
:1006B0001F910895DE2BF8CF9091000289130DC091
:1006C000E0ECF1E0E4919FEF90930002E230E1F082
:1006D00038F4EE2381F0E13089F060E00C942E03D1
:1006E000E43049F110F1E530C1F7909173009D7F3E
:1006F00090937300F2CF10926E00EFCF90916F0045
:100700009D7F90936F00E9CF909170009D7F9093B3
:10071000700091E09093B0009091B100987F946048
:100720009093B1001092B300D8CF909171009D7F4B
:1007300090937100D2CF909172009D7F9093720040
:10074000CCCFCF93DF9390E0FC01E959FD4F24918A
:100750008F5D9D4FFC0184918823D1F090E0880F3C
:10076000991FFC01E457FE4FA591B491FC01EA5595
:10077000FE4FC591D49161110EC09FB7F8948C9132
:10078000E22FE0958E238C932881E223E8839FBF9C
:10079000DF91CF9108958FB7F894EC91E22BEC9311
:1007A0008FBFF6CF3FB7F89480912F02909130021F
:1007B000A0913102B091320226B5A89B05C02F3F0F
:1007C00019F00196A11DB11D3FBFBA2FA92F982F77
:1007D0008827BC01CD01620F711D811D911D42E072
:1007E000660F771F881F991F4A95D1F708958F923A
:1007F0009F92AF92BF92CF92DF92EF92FF924B0106
:100800005C010E94D2036B017C010E94D2036C192F
:100810007D098E099F09683E734081059105A8F303
:1008200021E0821A9108A108B10888EEC80E83E081
:10083000D81EE11CF11C81149104A104B10429F714
:10084000FF90EF90DF90CF90BF90AF909F908F90F0
:100850000895AF92BF92CF92DF92EF92FF920F93E3
:100860001F93CF93DF936B017A01EC01C65DDD4FDF
:1008700028813CE0389F8001399F100D1124A09001
:10088000EF03B12C27FF1FC0FB011182108288816A
:100890008F5F888388819801280F311D87FD3A95E5
:1008A000F6012A153B051CF488818C30C4F1808147
:1008B0009181049680349C4908F473C0F6018081CC
:1008C0009181049670C088819801280F311D87FDA1
:1008D0003A952A153B05DCF68881A801480F511D81
:1008E00087FD5A95FA01EE0FFF1FE40FF51FE15A3D
:1008F000FC4F808186FFCBCF8881F801E80FF11D86
:1009000087FDFA95CF01EE0FFF1FE80FF91FE15A9F
:10091000FC4F808160E08F730E942E03B8CF8081EE
:1009200091812881A801420F511D27FD5A959A01F6
:10093000FA01EE0FFF1FE20FF31FE15AFC4F218176
:100940003281820F931FF701918380838881980100
:10095000280F311D87FD3A95F901EE0FFF1FE20FB9
:10096000F31FE15AFC4F808186FF22C08881080F67
:10097000111D87FD1A95F801EE0FFF1FE00FF11F03
:10098000E15AFC4F808161E08F73DF91CF911F911D
:100990000F91FF90EF90DF90CF90BF90AF900C94AD
:1009A0002E0380E49CE9F701918380838FEF888395
:1009B000DF91CF911F910F91FF90EF90DF90CF903B
:1009C000BF90AF900895FC01EE0FFF1FEA55FD4F59
:1009D00020813181232B39F421E030E031832083E1
:1009E00061E00C94A1030895682F82EC92E00C94CE
:1009F00029028FEF0E94F40485E50E94F4040C9410
:100A0000B8010F931F93CF93DF938B01D82FC92F7A
:100A100082E00E94F404C801AD2FBC2F809326020F
:100A200090932702A0932802B09329020E94F40415
:100A3000812F0E94F4048D2F0E94F4048C2FDF91EB
:100A4000CF911F910F910C94F4048FEF0E94F40446
:100A500085E50C94F4041F920F920FB60F921124A7
:100A60000BB60F922F933F934F935F936F937F93A8
:100A70008F939F93AF93BF93EF93FF93809149021E
:100A800090914A02A0914B02B0914C02892B8A2B83
:100A90008B2BE1F190913802E0913902F0913A020A
:100AA0008081892780838091490290914A02A09198
:100AB0004B02B0914C02181619061A061B069CF43C
:100AC0008091490290914A02A0914B02B0914C0250
:100AD0000197A109B1098093490290934A02A0931A
:100AE0004B02B0934C02FF91EF91BF91AF919F9158
:100AF0008F917F916F915F914F913F912F910F90C7
:100B00000BBE0F900FBE0F901F90189580910002A2
:100B10000E945C03E8CF1F920F920FB60F92112430
:100B20000BB60F922F933F934F935F936F937F93E7
:100B30008F939F93AF93BF93EF93FF9382EC92E0D9
:100B40000E940702FF91EF91BF91AF919F918F910A
:100B50007F916F915F914F913F912F910F900BBEBD
:100B60000F900FBE0F901F9018951F920F920FB607
:100B70000F9211240BB60F922F938F939F93EF93A5
:100B8000FF93E091D202F091D3028081E091D802EC
:100B9000F091D90282FD1DC090818091DB028F5FB0
:100BA0008F732091DC02821741F0E091DB02F0E0CC
:100BB000EE53FD4F958F8093DB02FF91EF919F9154
:100BC0008F912F910F900BBE0F900FBE0F901F9023
:100BD00018958081F2CF1F920F920FB60F921124B9
:100BE0002F933F938F939F93AF93BF938091650211
:100BF00090916602A0916702B091680230912E0236
:100C000023E0230F2D3758F50196A11DB11D209328
:100C10002E028093650290936602A0936702B093C0
:100C2000680280912F0290913002A0913102B09120
:100C300032020196A11DB11D80932F0290933002C4
:100C4000A0933102B0933202BF91AF919F918F91E7
:100C50003F912F910F900FBE0F901F90189526E88F
:100C6000230F0296A11DB11DD2CF1F920F920FB676
:100C70000F9211240BB60F922F933F934F935F93D4
:100C80006F937F938F939F93AF93BF93EF93FF9354
:100C900048E251E064E271E090E080E00E942904C3
:100CA000FF91EF91BF91AF919F918F917F916F9144
:100CB0005F914F913F912F910F900BBE0F900FBE00
:100CC0000F901F9018951F920F920FB60F9211243C
:100CD0000BB60F922F933F934F935F936F937F9336
:100CE0008F939F93AF93BF93EF93FF9348EA50E0A6
:100CF00064EA70E083E090E00E942904FF91EF91A4
:100D0000BF91AF919F918F917F916F915F914F9123
:100D10003F912F910F900BBE0F900FBE0F901F9021
:100D200018951F920F920FB60F9211240BB60F92C7
:100D30002F933F934F935F936F937F938F939F93E3
:100D4000AF93BF93EF93FF9348E950E064E970E0FD
:100D500082E090E00E942904FF91EF91BF91AF9152
:100D60009F918F917F916F915F914F913F912F91C3
:100D70000F900BBE0F900FBE0F901F9018951F92F3
:100D80000F920FB60F9211240BB60F922F933F9331
:100D90004F935F936F937F938F939F93AF93BF9383
:100DA000EF93FF9348E850E064E870E081E090E062
:100DB0000E942904FF91EF91BF91AF919F918F9174
:100DC0007F916F915F914F913F912F910F900BBE4B
:100DD0000F900FBE0F901F901895CF92DF92EF9259
:100DE000FF920F931F93E82FF92F05C001501109AF
:100DF0002109310961F1908196239417B9F305C057
:100E0000015011092109310911F1908196239413A0
:100E1000F7CFC12CD12CE12CF12C0AC08FEFC81ACE
:100E2000D80AE80AF80A0C151D052E053F0579F0C9
:100E300080818623841791F36C2D7D2D8E2D9F2D1F
:100E40001F910F91FF90EF90DF90CF90089560E099
:100E500070E080E090E01F910F91FF90EF90DF90A5
:100E6000CF9008951092C5021092C40288EE93E0CC
:100E7000A0E0B0E08093C6029093C702A093C8029E
:100E8000B093C90285E192E09093C3028093C202BD
:100E900085EC90E09093CF028093CE0284EC90E0BA
:100EA0009093D1028093D00280EC90E09093D30293
:100EB0008093D20281EC90E09093D5028093D4028B
:100EC00082EC90E09093D7028093D60286EC90E07B
:100ED0009093D9028093D8021092DB021092DC0228
:100EE0001092DD021092DE02E0EFF3E028E034E041
:100EF0004FEF68EB7BE08091EF038033B0F491E03B
:100F0000980F9093EF03808390E0DC01AA0FBB1F42
:100F1000A80FB91FA15ABC4F12967C936E931197DC
:100F200033962E173F0739F708954083F9CFCF93B3
:100F3000DF9300D01F92CDB7DEB7789484B582607E
:100F400084BD84B5816084BD85B5826085BD85B56D
:100F5000816085BD80916E00816080936E001092EB
:100F60008100809181008260809381008091810066
:100F700081608093810080918000816080938000F7
:100F80008091B10084608093B1008091B000816055
:100F90008093B00080919100826080939100809155
:100FA0009100816080939100809190008160809396
:100FB00090008091A10082608093A1008091A100A7
:100FC00081608093A1008091A00081608093A00047
:100FD00080912101826080932101809121018160B3
:100FE0008093210180912001816080932001809174
:100FF0007A00846080937A0080917A008260809386
:101000007A0080917A00816080937A0080917A00E2
:10101000806880937A001092C100E091D202F09132
:10102000D30282E08083E091CE02F091CF02108261
:10103000E091D002F091D10280E180831092DA0237
:10104000E091D602F091D70286E08083E091D4024D
:10105000F091D502808180618083E091D402F0918B
:10106000D502808188608083E091D402F091D5021E
:10107000808180688083E091D402F091D5028081E4
:101080008F7D8083198261E089810E94A10360E0E5
:1010900089810E942E0329812F5F29832E3099F7A1
:1010A00068EC70E080E090E00E94F7032224239433
:1010B000312C82EC92E00E94F1019A838983892B82
:1010C00009F4F9C582EC92E00E94F10118161906A4
:1010D00084F782EC92E00E94CF019091A0028535C6
:1010E00009F066C0911164C080919F028F3F29F47E
:1010F00031E030939E023093A00280919E028F5F78
:10110000843308F06DC080939E028091A0028823F2
:1011100081F280919D028111CCCF80919E0284301A
:1011200040F21092A00220916E02D0906F02ED2C3E
:10113000F12C30916D02323009F4A5C0333009F43E
:10114000C2C0313091F5273009F06CC04091700277
:101150004983842F90E02091A502211146C030934D
:10116000A502F0920402E09203029093020280939F
:101170000102F701EE0FFF1FEA55FD4F3182208279
:10118000880F991FFC01EA55FD4F3182208261E0F2
:101190008D2D0E94A10360E089810E94A10362E37A
:1011A00070E080E090E00E94F70310929E0281CFF1
:1011B00080939F02992309F4A0CFE0919E02E23030
:1011C00039F480939D02F0E0E759FD4F808395CF7D
:1011D000E330C8F390919D02915090939D02F3CF1C
:1011E00010929E021092A00290CF40910302509163
:1011F00004022091010230910202E416F50619F46E
:101200002817390791F2440F551FFA01EA55FD4F8F
:1012100011821082220F331FF901EA55FD4F11820E
:1012200010829FCF2091030230910402C701880FE2
:10123000991FE216F30639F0209101023091020263
:10124000E216F30681F41092A5021092A102109208
:10125000A2021092A3021092A4028A559D4FDC01B3
:101260001D921C92A2CF1092A5021092A102109280
:10127000A2021092A3021092A4028A559D4FFC0173
:101280001182108292CF8091030290910402E8169D
:10129000F90639F08091010290910202E816F906F0
:1012A00051F41092A5021092A1021092A202109283
:1012B000A3021092A402243009F4F6C33CF42130B6
:1012C000B1F02330E9F00E94F9046FCF253009F422
:1012D0000FC12830C1F72FB7F89480916502909123
:1012E0006602A0916702B09168022FBFECCFC701E0
:1012F0000E94E304609170028D2D0E942E03E3CFC3
:10130000C7010E94E304F0917002F98361E08D2D22
:101310000E94A1032981211102C060E0EDCF398133
:101320003F3F11F461E0E8CFF701EF53FE4FE49146
:10133000E150E23108F0D8C0F0E08827ED55F64FD3
:101340008F4F0C948C11B509BB09C109CE09DB097B
:10135000740AE809F109FA09070A140A210A330A8A
:10136000400A740A4D0A5A0A670A84B5806884BD27
:10137000E980E7BCA8CF84B5806284BDF980F8BC61
:10138000A2CF809180008068809380003981232FD4
:1013900030E0309389002093880095CF80918000C1
:1013A0008062809380005981452F50E050938B00DC
:1013B00040938A0088CF809180008860809380006D
:1013C0009981892F90E090938D0080938C007BCF42
:1013D0008091B00080688093B000E980E092B30013
:1013E00072CF8091B00080628093B000F980F0925B
:1013F000B40069CF8091900080688093900039811B
:10140000232F30E030939900209398005CCF809197
:1014100090008062809390005981452F50E0509356
:101420009B0040939A004FCF8091900088608093FA
:1014300090009981892F90E090939D0080939C006B
:1014400042CF8091A00080688093A0008091A0008E
:101450008F7B8093A000B981AB2FB0E0B093A9003F
:10146000A093A80030CF8091A00080628093A0005C
:10147000F981EF2FF0E0F093AB00E093AA0023CFC7
:101480008091A00088608093A000F980EF2CF12C5F
:10149000F092AD00E092AC0016CF80912001806800
:1014A000809320013981232F30E03093290120934C
:1014B000280109CF80912001806280932001598109
:1014C000452F50E050932B0140932A01FCCE809190
:1014D00020018860809320019981892F90E090936A
:1014E0002D0180932C01EFCEE980E7FC1BCF15CFB7
:1014F000C7010E94E30480917002809333028091BF
:1015000071028093340220913302309134023C8383
:101510002B838091720280933302809173028093B7
:10152000340240913302509134025A834983141695
:1015300015060CF0B5C2809100028D11CEC0E0EC12
:10154000F1E0149117FDBFCE61E08D2D0E94A10343
:101550001123B9F0EB80FC804701B12CA12C60E095
:1015600072E18AE790E0A50197010E94B31069013A
:101570007A0181E0C81AD108E108F108123009F0B7
:101580000FC2EB80FC804701B12CA12C60E072E11E
:101590008AE790E0A50197010E94B31029013A0162
:1015A0007A01690121E0C21AD108E108F1083FEF90
:1015B000C316D104E104F10409F00CF4BDC160E4E8
:1015C00072E48FE090E0A50194010E94B3106901DC
:1015D0007A0181E0C81AD108E108F108123009F057
:1015E00062C182E09FEFC916D104E104F10409F061
:1015F0000CF46CC060E970ED83E090E0A50194010B
:101600000E94B31069017A01A1E0CA1AD108E10869
:10161000F10883E0BFEFCB16D104E104F10409F037
:101620000CF454C068E478EE81E090E0A5019401E8
:101630000E94B31069017A0181E0C81AD108E1085B
:10164000F10884E09FEFC916D104E104F104F1F13F
:10165000ECF164E274EF80E090E0A50194010E9457
:10166000B31069017A0181E0C81AD108E108F108D4
:1016700085E03FEFC316D104E104F10439F130F104
:1016800062E17AE780E090E0A50194010E94B31046
:1016900069017A01F1E0CF1AD108E108F10886E08A
:1016A0002FEFC216D104E104F10481F078F0730148
:1016B00062012AE0F594E794D794C7942A95D1F76C
:1016C00021E0C21AD108E108F10887E09091B10049
:1016D000987F892B8093B10036C18F3F09F0F3CDFD
:1016E000D0920002E0ECF1E01491812F1F3F09F449
:1016F000EACD123009F471C060F4112391F1113078
:1017000009F44AC087FDDFCD61E08D2D0E94A10361
:1017100021CF143009F4A6C008F483C0153091F726
:101720001092200110922101809121018860809304
:10173000210180912101816080932101F701EF5DFA
:10174000FD4FE491F0E0EE0FFF1FEA55FE4F85914B
:101750009491F701E959FD4FE491E093350215E0CA
:10176000F3CE14BC15BC84B5826084BD85B58160A0
:1017700085BDF701EF5DFD4FE491F0E0EE0FFF1F37
:10178000EA55FE4F85919491F701E959FD4FE49197
:10179000E0933C0210E0D8CE1092800010928100BD
:1017A00080918100886080938100809181008160B8
:1017B00080938100F701EF5DFD4FE491F0E0EE0FC3
:1017C000FF1FEA55FE4F85919491F701E959FD4FAE
:1017D000E491E0933B0211E0B7CE1092B00010927A
:1017E000B1008091B00082608093B0008091B10020
:1017F00081608093B100F701EF5DFD4FE491F0E06F
:10180000EE0FFF1FEA55FE4F8591949190933A0297
:1018100080933902F701E959FD4FE491E0933802D2
:1018200093CE109290001092910080919100886068
:101830008093910080919100816080939100F701E5
:10184000EF5DFD4FE491F0E0EE0FFF1FEA55FE4F14
:1018500085919491F701E959FD4FE491E0933702A6
:1018600013E072CE1092A0001092A1008091A1000E
:1018700088608093A1008091A10081608093A10085
:10188000F701EF5DFD4FE491F0E0EE0FFF1FEA5529
:10189000FE4F85919491F701E959FD4FE491E09352
:1018A000360214E051CEEFEFCE16D104E104F1047C
:1018B00009F00CF473C068E478EE81E090E0A501D3
:1018C00094010E94B31069017A01F1E0CF1AD108A6
:1018D000E108F10884E01111CCCE83E0EFEFCE16E1
:1018E000D104E104F10459F154F162E17AE780E0B6
:1018F00090E0A50194010E94B31069017A01A1E072
:10190000CA1AD108E108F10884E0BFEFCB16D10470
:10191000E104F104A1F098F0730162019AE0F594FA
:10192000E794D794C7949A95D1F731E0C31AD108B8
:10193000E108F10885E003C081E01111C7CE95B53B
:10194000987F892B85BD2B813C81220F331FA98174
:10195000BA810E94941128EE33E040E050E00E94EA
:10196000DD10123009F468C00CF0BFC2112309F475
:1019700054C0113009F0A7CCD0928900C0928800E1
:1019800020934D0230934E0240934F0250935002E9
:1019900080916F00826080936F0095CC82E0CDCF04
:1019A000C114D10491E0E906F104CCF068E478EECA
:1019B00081E090E0A50194010E94B31069017A01D1
:1019C000A1E0CA1AD108E108F10893E0113049F406
:1019D00080918100887F892B80938100B4CF91E032
:1019E000F5CF133039F480919100887F892B809353
:1019F0009100A9CF143039F48091A100887F892B00
:101A00008093A100A0CF153009F09DCF80912101D6
:101A1000887F892B8093210196CFC7BC20935102E8
:101A200030935202409353025093540280916E00BF
:101A3000826080936E0047CCC092B300209349022D
:101A400030934A0240934B0250934C0280917000B5
:101A500082608093700037CCD0929900C092980039
:101A60002093450230934602409347025093480228
:101A70008091710082608093710025CCD092A90082
:101A8000C092A80020934102309342024093430247
:101A9000509344028091720082608093720013CC54
:101AA0008D2D0E945C030FCCC7010E94E3040091BE
:101AB0007002053B08F007CCE5E5F2E090E080E03D
:101AC00021913191E216F30651F0232B09F0BFC0AA
:101AD000FC01EE0FFF1FEB5AFD4FF182E0829C01EB
:101AE000220F331F820F931FFC01E051FC4F108126
:101AF00081819281103308F04EC061E08D2D0E94EB
:101B0000A103212F30E05901AA0CBB1CF501E20F03
:101B1000F31FE15AFC4FBD2DBF73DB2E8081807C0B
:101B2000D82AD0824CE0812F642F0E948011849F9C
:101B3000B0011124F0E0E0E0DB01AE0FBF1FAD010A
:101B4000440F551FA40FB51FAD01415A5C4FDA0178
:101B50009C9196FD16C03196EC30F10569F7813005
:101B600009F07DC01092800082E080938100109285
:101B7000850010928400B19A80916F0082608093FA
:101B80006F00D501A20FB31FA15ABC4F8C91806486
:101B90008C9390E080E0103308F095CBE8E5EE2ED2
:101BA000E2E0FE2EE91AF10897FDF394EE0CFF1C1B
:101BB000EE0CFF1CE8E8F0E0E81BF10987FDF39567
:101BC000EE0FFF1FEE0FFF1FFA83E9834F01FF0F98
:101BD000AA08BB0897010F2C000C440B550B2819C1
:101BE00039094A095B09A02FB0E00E94D21024EB0A
:101BF00030E040E050E00E94B310820E931EA41E1D
:101C0000B51E29813A81821693063CF0FA82E98258
:101C10008E149F0414F49A82898249815A81425019
:101C20005109440F551F5A8349834FB7F894212F08
:101C300030E0C901880F991F820F931FFC01E15A00
:101C4000FC4F89819A81928381834FBF3CCB01965F
:101C50008830910509F034CF90E080E040CF8230A9
:101C600061F4109290008093910010929500109270
:101C7000940088BB8093710084CF833069F4109204
:101C8000A00082E08093A1001092A5001092A40011
:101C900089BB8093720075CF811173CF10922001A0
:101CA00082E08093210110922501109224018ABBC9
:101CB0008093730066CF6FE070E080E090E00E9458
:101CC000F70356EAE52E52E0F52ED7010D911D914E
:101CD0007D010115110509F03DC0B98060E08B2D33
:101CE0000E94A1030E942505E981FA81EF53FE4F6E
:101CF0008491E981FA81E959FD4FC490E981FA8123
:101D0000EF5DFD4FD490DD2099F081110E94C70254
:101D1000ED2DF0E0EE0FFF1FE95FFD4FA591B491AF
:101D2000EC91CE2291E080E009F490E0092F182F89
:101D3000B801110F880B990B0E94960F0E940105A4
:101D40008B2D0E94F40481E00E94F4040E94B801EB
:101D50000E94F904E981FA813196FA83E9833E977A
:101D600009F0B3CF25E032E03A83298310E0A9815E
:101D7000BA818D919D91BA83A983892B61F50E94C7
:101D8000250580917B00877F80937B00812F806475
:101D900080937C0080917A00806480937A008091A7
:101DA0007A0086FDFCCF8091780060917900762FD3
:101DB000682F072E000C880B990B0E94960F0E942B
:101DC0000105812F0E94F40482E00E94F4040E9425
:101DD000B8010E94F9041F5F163049F68091A502F0
:101DE000882309F470C0E0900302E98260E08E2D40
:101DF0000E942E0383E090E00197F1F761E0898172
:101E00000E942E0383E290E00197F1F760E0898160
:101E10000E942E0380910102909102029927FC01F9
:101E2000E959FD4F6491FC01EF5DFD4FE491F0E055
:101E3000EE0FFF1FE95FFD4F8591949100E315E7D9
:101E400020E030E0462F0E94ED0661157105810506
:101E5000910529F06F5F7F4F8F4F9F4F9F700E94BA
:101E6000940F20E030E048EE51E40E940E1120E093
:101E700030E040E05FE30E94F50F6B017C0120E061
:101E800030E0A9010E948F0F811126C0C090A102ED
:101E9000D090A202E090A302F090A4020E94250537
:101EA000C701B6010E940105809103020E94F4045B
:101EB000809101020E94F40487E00E94F4040E94D1
:101EC000B8010E94F9046AE070E080E090E00E94AE
:101ED000F7030E949602EAC8C092A102D092A20221
:101EE000E092A302F092A402D9CF143009F4C6CD37
:101EF0000CF4B2CD153009F0E6C9D0922901C09298
:101F0000280120933D0230933E0240933F025093BC
:101F1000400280917300826080937300D4C90E9454
:101F2000D10F08F481E00895E89409C097FB3EF4CE
:101F300090958095709561957F4F8F4F9F4F992316
:101F4000A9F0F92F96E9BB279395F6958795779594
:101F50006795B795F111F8CFFAF4BB0F11F460FF54
:101F60001BC06F5F7F4F8F4F9F4F16C0882311F0AC
:101F700096E911C0772321F09EE8872F762F05C0C0
:101F8000662371F096E8862F70E060E02AF09A955B
:101F9000660F771F881FDAF7880F9695879597F950
:101FA0000895990F0008550FAA0BE0E8FEEF1616EA
:101FB0001706E807F907C0F012161306E407F5073D
:101FC00098F0621B730B840B950B39F40A2661F0B1
:101FD000232B242B252B21F408950A2609F4A14054
:101FE000A6958FEF811D811D08950E9408100C9405
:101FF00079100E946B1038F00E94721020F0952327
:1020000011F00C9462100C94681011240C94AD1013
:102010000E948A1070F3959FC1F3950F50E0551FF1
:10202000629FF001729FBB27F00DB11D639FAA272D
:10203000F00DB11DAA1F649F6627B00DA11D661F7C
:10204000829F2227B00DA11D621F739FB00DA11D9D
:10205000621F839FA00D611D221F749F3327A00D57
:10206000611D231F849F600D211D822F762F6A2FF3
:1020700011249F5750409AF0F1F088234AF0EE0F58
:10208000FF1FBB1F661F771F881F91505040A9F785
:102090009E3F510580F00C9462100C94AD105F3F90
:1020A000E4F3983ED4F3869577956795B795F795C1
:1020B000E7959F5FC1F7FE2B880F911D9695879539
:1020C00097F9089597F99F6780E870E060E00895B8
:1020D0009FEF80EC089500240A9416161706180640
:1020E0000906089500240A9412161306140605061C
:1020F0000895092E0394000C11F4882352F0BB0FAD
:1021000040F4BF2B11F460FF04C06F5F7F4F8F4F0F
:102110009F4F089557FD9058440F551F59F05F3F4A
:1021200071F04795880F97FB991F61F09F3F79F0F9
:1021300087950895121613061406551FF2CF46957B
:10214000F1DF08C0161617061806991FF1CF8695FD
:102150007105610508940895E894BB2766277727E1
:10216000CB0197F90895052E97FB1EF400940E9469
:10217000CA1057FD07D00E94DD1007FC03D04EF4B3
:102180000C94CA1050954095309521953F4F4F4F74
:102190005F4F089590958095709561957F4F8F4F13
:1021A0009F4F08950E94FF10A59F900DB49F900D22
:1021B000A49F800D911D11240895A1E21A2EAA1B3F
:1021C000BB1BFD010DC0AA1FBB1FEE1FFF1FA217E7
:1021D000B307E407F50720F0A21BB30BE40BF50BE4
:1021E000661F771F881F991F1A9469F7609570956D
:1021F000809590959B01AC01BD01CF010895A29FF0
:10220000B001B39FC001A39F700D811D1124911DCA
:10221000B29F700D811D1124911D08950E942211FD
:102220000C9479100E94721058F00E946B1040F0CC
:1022300029F45F3F29F00C94621051110C94AD10F9
:102240000C9468100E948A1068F39923B1F3552307
:1022500091F3951B550BBB27AA27621773078407B9
:1022600038F09F5F5F4F220F331F441FAA1FA9F34F
:1022700035D00E2E3AF0E0E832D091505040E6953D
:10228000001CCAF72BD0FE2F29D0660F771F881F9E
:10229000BB1F261737074807AB07B0E809F0BB0B91
:1022A000802DBF01FF2793585F4F3AF09E3F5105A5
:1022B00078F00C9462100C94AD105F3FE4F3983EFC
:1022C000D4F3869577956795B795F7959F5FC9F78E
:1022D000880F911D9695879597F90895E1E0660F0F
:1022E000771F881FBB1F621773078407BA0720F088
:1022F000621B730B840BBA0BEE1F88F7E0950895F1
:10230000991B79E004C0991F961708F0961B881F47
:102310007A95C9F780950895EE0FFF1F881F8BBF30
:102320000790F691E02D19940E94FF10B7FF0895D1
:10233000821B930B0895F894FFCFFF0C000D000053
:102340000000000000000000000000000000002964
:10235000028B01C0017602F101CF01E3010D0A00F9
:020000040003F7
:10E000000D9489F10D94B2F10D94B2F10D94B2F129
:10E010000D94B2F10D94B2F10D94B2F10D94B2F1F0
:10E020000D94B2F10D94B2F10D94B2F10D94B2F1E0
:10E030000D94B2F10D94B2F10D94B2F10D94B2F1D0
:10E040000D94B2F10D94B2F10D94B2F10D94B2F1C0
:10E050000D94B2F10D94B2F10D94B2F10D94B2F1B0
:10E060000D94B2F10D94B2F10D94B2F10D94B2F1A0
:10E070000D94B2F10D94B2F10D94B2F10D94B2F190
:10E080000D94B2F10D94B2F10D94B2F10D94B2F180
:10E090000D94B2F10D94B2F10D94B2F10D94B2F170
:10E0A0000D94B2F10D94B2F10D94B2F10D94B2F160
:10E0B0000D94B2F10D94B2F10D94B2F10D94B2F150
:10E0C0000D94B2F10D94B2F10D94B2F10D94B2F140
:10E0D0000D94B2F10D94B2F10D94B2F10D94B2F130
:10E0E0000D94B2F141546D656761323536300041AF
:10E0F000726475696E6F206578706C6F72657220DE
:10E1000073746B3530305632206279204D4C530099
:10E11000426F6F746C6F616465723E004875683F52
:10E1200000436F6D70696C6564206F6E203D200048
:10E130004350552054797065202020203D20005FF9
:10E140005F4156525F415243485F5F3D2000415658
:10E1500052204C696243205665723D20004743437C
:10E160002056657273696F6E203D20004350552024
:10E1700049442020202020203D20004C6F7720663D
:10E18000757365202020203D20004869676820665F
:10E190007573652020203D200045787420667573D6
:10E1A00065202020203D20004C6F636B2066757336
:10E1B000652020203D20004D617220203720323024
:10E1C000313300312E362E3800342E332E350056A2
:10E1D00023202020414444522020206F7020636F70
:10E1E00064652020202020696E73747275637469E1
:10E1F0006F6E2061646472202020496E74657272B3
:10E20000757074006E6F20766563746F7200726A49
:10E210006D702020006A6D70200057686174207056
:10E220006F72743A00506F7274206E6F7420737541
:10E2300070706F72746564004D7573742062652030
:10E2400061206C6574746572002000577269747483
:10E25000696E672045450052656164696E672045B7
:10E26000450045452065727220636E743D00504F35
:10E27000525400303D5A65726F2061646472003FF1
:10E280003D43505520737461747300403D454550C3
:10E29000524F4D207465737400423D426C696E6B41
:10E2A000204C454400453D44756D70204545505215
:10E2B0004F4D00463D44756D7020464C415348001B
:10E2C000483D48656C70004C3D4C69737420492F83
:10E2D0004F20506F72747300513D51756974005234
:10E2E0003D44756D702052414D00563D73686F7707
:10E2F00020696E7465727275707420566563746FF0
:10E30000727300593D506F727420626C696E6B00BD
:10E310002A0011241FBECFEFD1E2DEBFCDBF01E046
:10E320000CBF12E0A0E0B2E0EEE1FDEF03E00BBFB6
:10E3300002C007900D92A030B107D9F712E0A0E01B
:10E34000B2E001C01D92AE30B107E1F70F9460F367
:10E350000D948DFE01E20EBF0FEF0DBF11241FBE05
:10E360000D9460F30D9400F020E030E040ED57E0B4
:10E3700005C0FA013197F1F72F5F3F4F2817390792
:10E38000C0F308959C01260F311DC901A0E0B0E043
:10E390002F5F3F4FABBFFC018791882361F08093D3
:10E3A000C6008091C00086FFFCCF8091C0008064D1
:10E3B0008093C000EACF08958DE08093C6008091DD
:10E3C000C00086FFFCCF8091C00080648093C000B5
:10E3D0008AE08093C6008091C00086FFFCCF8091C8
:10E3E000C00080648093C00008950F94C2F10F9420
:10E3F000DCF10895FC019081992359F09093C600B7
:10E400008091C00086FFFCCF8091C0008064809323
:10E41000C0003196992379F70895282F982F929567
:10E420009F70892F805D8A3308F0895F8093C600D2
:10E430008091C00086FFFCCF8091C00080648093F3
:10E44000C000822F8F70982F905D9A3308F0995FEB
:10E450009093C6008091C00086FFFCCF8091C000E1
:10E4600080648093C00008959C01FB01853691056E
:10E470001CF46330710594F0C90164E670E00F94F8
:10E480002EFE605D7F4F6093C6008091C00086FFC6
:10E49000FCCF8091C00080648093C0002B30310598
:10E4A00014F43297B4F0C90164E670E00F942EFEC4
:10E4B0006AE070E00F942EFE605D7F4F6093C600AF
:10E4C0008091C00086FFFCCF8091C0008064809363
:10E4D000C000C9016AE070E00F942EFEC0968093E0
:10E4E000C6008091C00086FFFCCF8091C000806490
:10E4F0008093C00008951F93182F8EE692EE60E07F
:10E500000F94C2F11093C6008091C00086FFFCCF2B
:10E510008091C00080648093C0000F94DCF11F9153
:10E5200008952F923F924F925F926F927F928F92B7
:10E530009F92AF92BF92CF92DF92EF92FF920F9392
:10E540001F93DF93CF93CDB7DEB762970FB6F894E2
:10E55000DEBF0FBECDBF382E622ECA01DB015C01CB
:10E560006D01772420E2222E2E010894411C511CBB
:10E570008BC081E0A81680E0B80681E0C80680E084
:10E58000D80628F0C601AA27BB270F940DF2BB2797
:10E59000AD2D9C2D8B2D0F940DF28A2D0F940DF225
:10E5A0002092C6008091C00086FFFCCF8091C00001
:10E5B00080648093C0009DE29093C6008091C0006B
:10E5C00086FFFCCF8091C00080648093C0002092C1
:10E5D000C6008091C00086FFFCCF8091C00080649F
:10E5E0008093C00019828601750188249924A1E0D6
:10E5F0003A1651F03A1620F0B2E03B1661F409C029
:10E600000BBFF701779007C0C7010F9477FE782EF4
:10E6100002C0F7017080872D0F940DF22092C60082
:10E620008091C00086FFFCCF8091C0008064809301
:10E63000C000872D8052F401EF70F0708F3520F408
:10E64000E40DF51D708204C0E40DF51D8EE280839B
:10E650000894E11CF11C011D111D0894811C911CE2
:10E6600090E18916910409F0C2CF80E190E0A0E02A
:10E67000B0E0A80EB91ECA1EDB1E198AC2010F9493
:10E68000FAF10F94DCF16A94662009F072CF629679
:10E690000FB6F894DEBF0FBECDBFCF91DF911F91B3
:10E6A0000F91FF90EF90DF90CF90BF90AF909F9031
:10E6B0008F907F906F905F904F903F902F90089534
:10E6C0002F923F924F925F926F927F928F929F9282
:10E6D000AF92BF92CF92DF92EF92FF920F931F9370
:10E6E000DF93CF93CDB7DEB7CD53D1400FB6F894BB
:10E6F000DEBF0FBECDBF01E20EBF0FEF0DBF94B75F
:10E70000F894A89514BE80916000886180936000A1
:10E7100010926000789493FF05C0E0910002F091A0
:10E7200001021995279A2F9A8091C00082608093E8
:10E73000C00080E18093C40088E18093C1000000A4
:10E74000EE24FF24870144E0A42EB12CCC24DD2448
:10E7500024C0C5010197F1F70894E11CF11C011DCB
:10E76000111D21E2E2162EE4F20620E0020720E06D
:10E77000120718F031E0C32ED12CC801B70127ECE5
:10E780003BE140E050E00F9441FE611571058105C9
:10E79000910519F485B1805885B98091C00087FD35
:10E7A00003C0C114D104A9F2A6014F5F5F4FC25E3E
:10E7B000DE4F59834883CE51D140C25EDE4F8881FF
:10E7C0009981CE51D140019711F00D9410FEC05D9A
:10E7D000DE4F19821882C053D14060E0C15DDE4F28
:10E7E0001882CF52D14088249924C35DDE4F19820C
:10E7F0001882CD52D140C05EDE4F188219821A8233
:10E800001B82C052D140CE5CDE4F188219821A8220
:10E810001B82C253D140EE24FF2487010BBFF701B6
:10E8200007911691C45CDE4F19830883CC53D14005
:10E830000D940BFEC25EDE4F28813981CE51D1404E
:10E840002130310509F52091C600C25EDE4F1982E4
:10E850001882CE51D14022C02F5F3F4F4F4F5F4FA4
:10E86000213082E138078AE7480780E0580780F0C6
:10E87000C45CDE4FE881F981CC53D140EF5FFF4F9C
:10E8800019F0EE27FF27099420E030E040E050E047
:10E890008091C00087FFE0CF2091C600C35DDE4FAE
:10E8A00048815981CD52D1404F5F5F4FC35DDE4FEC
:10E8B00059834883CD52D140213209F063C64A3092
:10E8C000510508F05FC60894811C911C53E0851621
:10E8D000910409F059C600E010E018C081E280936D
:10E8E000C6008091C00086FFFCCF8091C00080648C
:10E8F0008093C0002F5F3F4F2931310579F70F9486
:10E90000DCF10F5F1F4F0530110519F020E030E0FA
:10E91000E5CF10920A0210920B0210920C02109294
:10E920000D02109206021092070210920802109235
:10E930000902109202021092030210920402109235
:10E9400005028FEE90EE60E00F94F5F180E191EE1C
:10E9500060E00F94C2F18091C00087FFFCCF9091DE
:10E96000C600903608F09F759032B8F09093C600BC
:10E970008091C00086FFFCCF8091C00080648093AE
:10E98000C000A0E2A093C6008091C00086FFFCCF2B
:10E990008091C00080648093C000983409F4D7C18E
:10E9A0009934B8F4923409F459C1933458F490333B
:10E9B00019F1903308F4E3C59F33A1F1903409F0C5
:10E9C000DEC5BDC0953409F470C1963409F0D7C5D1
:10E9D00098C1923509F42BC2933538F49C3409F46C
:10E9E000F5C1913509F0CBC518C2963509F445C279
:10E9F000993509F0C4C567C483E792EE62E00F94CD
:10EA0000F5F110920602109207021092080210927D
:10EA1000090210920A0210920B0210920C0210923C
:10EA20000D0213C18FE792EE62E00F94F5F18FEEC5
:10EA300090EE60E00F94F5F181E291EE60E00F94CA
:10EA4000C2F187EB91EE60E00F94F5F180E391EE77
:10EA500060E00F94C2F184EE90EE60E00F94F5F167
:10EA60008FE391EE60E00F94C2F186E090E061E008
:10EA700070E00F9434F20F94DCF18DE591EE60E0DC
:10EA80000F94C2F189EC91EE60E00F94F5F18EE401
:10EA900091EE60E00F94C2F183EC91EE60E00F9490
:10EAA000F5F18CE691EE60E00F94C2F18EE10F94E7
:10EAB0000DF288E90F940DF281E00F940DF20F949E
:10EAC000DCF18BE791EE60E00F94C2F119E0E0E039
:10EAD000F0E010935700E4918E2F0F940DF20F94F5
:10EAE000DCF18AE891EE60E00F94C2F1E3E0F0E03F
:10EAF00010935700E4918E2F0F940DF20F94DCF1D8
:10EB000089E991EE60E00F94C2F1E2E0F0E0109349
:10EB10005700E4918E2F0F940DF20F94DCF188EAE8
:10EB200091EE60E00F94C2F1E1E0F0E01093570045
:10EB30001491812F0F940DF20F94DCF107CF8BE825
:10EB400092EE62E00F94F5F18BE492EE60E00F94A8
:10EB5000F5F10F94DCF100E010E019C0C8016F2D51
:10EB60000F947FFEFF2031F489E492EE60E00F9471
:10EB7000C2F10BC0F092C6008091C00086FFFCCFAE
:10EB80008091C00080648093C0000F5F1F4FC80158
:10EB900081519F41A0E0B0E0ABBFFC01F790BAE229
:10EBA000FB1621F0E2E000301E07C1F60F94DCF105
:10EBB0000F94DCF187E592EE60E00F94F5F10F948D
:10EBC000DCF1CC24DD2400E010E01EC0C8010F946D
:10EBD00077FEF82E882331F489E492EE60E00F94FA
:10EBE000C2F10BC08093C6008091C00086FFFCCFAD
:10EBF0008091C00080648093C000FE1419F00894D6
:10EC0000C11CD11C0F5F1F4FC80181519F41A0E063
:10EC1000B0E0ABBFFC01E790FAE2EF1621F022E092
:10EC20000030120799F60F94DCF10F94DCF182E6C4
:10EC300092EE60E00F94C2F1C60161E070E00F94C3
:10EC400034F20F94DCF10F94DCF110920202109276
:10EC50000302109204021092050278CE89E992EE26
:10EC600062E00F94F5F1279A2F9A16C02F9880E052
:10EC700090E0E0EDF7E03197F1F7019684369105E9
:10EC8000C1F72F9A80E090E0E0EDF7E03197F1F7DF
:10EC9000019684369105C1F78091C00087FFE6CFC9
:10ECA0008091C00087FFFCCF64C485EA92EE62E0E9
:10ECB0000F94F5F140910202509103026091040219
:10ECC0007091050281E020E10F9491F2809102029F
:10ECD00090910302A0910402B091050280509F4FD1
:10ECE000AF4FBF4F8093020290930302A0930402A0
:10ECF000B093050280509041A040B04008F426CE69
:10ED0000A4CF83EB92EE62E00F94F5F140910602FE
:10ED100050910702609108027091090280E020E1A1
:10ED20000F9491F28091060290910702A09108023F
:10ED3000B091090280509F4FAF4FBF4F80930602A2
:10ED400090930702A0930802B0930902FFCD80ECD4
:10ED500092EE62E00F94F5F183E792EE60E00F949B
:10ED6000F5F18FE792EE60E00F94F5F18BE892EE0B
:10ED700060E00F94F5F189E992EE60E00F94F5F10F
:10ED800085EA92EE60E00F94F5F183EB92EE60E09D
:10ED90000F94F5F180EC92EE60E00F94F5F187ECC2
:10EDA00092EE60E00F94F5F188ED92EE60E00F9442
:10EDB000F5F18FED92EE60E00F94F5F18AEE92EEB0
:10EDC00060E00F94F5F183E093EEBDCD87EC92EE19
:10EDD00062E00F94F5F181E40F947BF282E40F94EA
:10EDE0007BF283E40F947BF284E40F947BF285E45E
:10EDF0000F947BF286E40F947BF287E40F947BF20E
:10EE000088E40F947BF28AE40F947BF28BE40F94F6
:10EE10007BF28CE40F947BF299CD88ED92EE62E068
:10EE20000F94F5F1772473948824992409C48FED05
:10EE300092EE62E00F94F5F140910A0250910B02BC
:10EE400060910C0270910D0282E020E10F9491F22A
:10EE500080910A0290910B02A0910C02B0910D02D8
:10EE600080509F4FAF4FBF4F80930A0290930B0289
:10EE7000A0930C02B0930D0269CD8AEE92EE62E08F
:10EE80000F94F5F184EE90EE60E00F94F5F18FECC5
:10EE900091EE60E00F94F5F1662477244301CC5D98
:10EEA000DE4F19821882C452D140D401C301B695F5
:10EEB000A79597958795CA5DDE4F88839983AA8326
:10EEC000BB83C652D140CC5DDE4FA881B981C4520C
:10EED000D1401196CC5DDE4FB983A883C452D14096
:10EEE000CD0162E070E00F9434F2B0E2B093C6005E
:10EEF0008091C00086FFFCCF8091C0008064809329
:10EF0000C000EDE2E093C6008091C00086FFFCCF18
:10EF10008091C00080648093C000F0E2F093C6004E
:10EF20008091C00086FFFCCF8091C00080648093F8
:10EF3000C000CA5DDE4FE880F9800A811B81C6529D
:10EF4000D140BB27A12F902F8F2D0F940DF2CA5DBA
:10EF5000DE4F8881C652D1400F940DF2B0E2FB2EF5
:10EF6000F092C6008091C00086FFFCCF8091C00067
:10EF700080648093C0000DE30093C6008091C000C0
:10EF800086FFFCCF8091C00080648093C00010E2B7
:10EF90001093C6008091C00086FFFCCF8091C00016
:10EFA00080648093C0008BBEF3012791C65DDE4F65
:10EFB0002883CA52D140A22EBB24CC24DD2408943D
:10EFC000611C711C811C911C8BBEF3018791282E42
:10EFD0003324442455240894611C711C811C911C09
:10EFE0008BBEF3013791C55DDE4F3883CB52D140E4
:10EFF0000894611C711C811C911C8BBEF30147910C
:10F00000C45DDE4F4883CC52D140ADEFEA2EAFEF66
:10F01000FA2EAFEF0A2FAFEF1A2F6E0C7F1C801E57
:10F02000911E142D032DF22CEE24EA0CFB1C0C1D5A
:10F030001D1D0F940DF220E22093C6008091C000A8
:10F0400086FFFCCF8091C00080648093C000C65DC5
:10F05000DE4F8881CA52D1400F940DF230E23093D6
:10F06000C6008091C00086FFFCCF8091C000806404
:10F070008093C000C45DDE4F8881CC52D1400F9494
:10F080000DF240E24093C6008091C00086FFFCCFA5
:10F090008091C00080648093C000C55DDE4F888190
:10F0A000CB52D1400F940DF250E25093C6008091A4
:10F0B000C00086FFFCCF8091C00080648093C000B8
:10F0C0008FEFE8168FEFF80680E0080780E018075A
:10F0D00031F484E092EE60E00F94C2F1DFC0D80119
:10F0E000C7018070907CA070B0708050904CA040A0
:10F0F000B040D1F52FEF3FE340E050E0E222F322B1
:10F1000004231523CA5DDE4FA880B980CA80DB8046
:10F11000C652D140AE0CBF1CC01ED11EAA0CBB1CD7
:10F12000CC1CDD1C8EE092EE60E00F94C2F1BB2798
:10F13000A12F902F8F2D0F940DF28E2D0F940DF285
:10F1400030E23093C6008091C00086FFFCCF8091F2
:10F15000C00080648093C0004EE34093C60080915D
:10F16000C00086FFFCCF87C08EE09EEFA0E0B0E03D
:10F17000E822F9220A231B239CE0E91694E9F90608
:10F1800090E0090790E0190709F088C0C45DDE4FE0
:10F19000A881CC52D140EA2EFF2400E010E0102FCD
:10F1A0000F2DFE2CEE24C55DDE4FB881CB52D14031
:10F1B000EB0EF11C011D111DD601C501817090706F
:10F1C000A070B070DC0199278827E80EF91E0A1F8D
:10F1D0001B1F20EF30E040E050E0A222B322C42207
:10F1E000D52241E1AA0CBB1CCC1CDD1C4A95D1F7F1
:10F1F000EA0CFB1C0C1D1D1D81E090E0A0E0B0E0BE
:10F20000282239224A225B2235E1220C331C441C7D
:10F21000551C3A95D1F7E20CF31C041D151D57013E
:10F220006801AA0CBB1CCC1CDD1C85E192EE60E0E1
:10F230000F94C2F1C801AA27BB270F940DF2BB2778
:10F24000A12F902F8F2D0F940DF28E2D0F940DF274
:10F2500090E29093C6008091C00086FFFCCF809121
:10F26000C00080648093C000AEE3A093C60080918C
:10F27000C00086FFFCCF8091C00080648093C000F6
:10F28000C601AA27BB270F940DF2BB27AD2D9C2DDD
:10F290008B2D0F940DF28A2D0F940DF20F94DCF14B
:10F2A000CC5DDE4FE881F981C452D140F99709F471
:10F2B0004DCBF4E0EF2EF12C012D112D6E0C7F1CA7
:10F2C000801E911EF2CD83E093EE62E00F94F5F183
:10F2D0008AE192EE60E00F94C2F18091C00087FF56
:10F2E000FCCF1091C6001F751093C6008091C0001E
:10F2F00086FFFCCF8091C00080648093C0000F9493
:10F30000DCF1812F81548A3108F036C1163409F4BA
:10F3100095C0173490F4133409F44EC0143430F40B
:10F320001134F1F0123409F01DC130C0143409F465
:10F3300059C0153409F016C16BC01A3409F4C4C0A1
:10F340001B3438F4173409F48FC0183409F00AC19B
:10F35000A1C01B3409F4D2C01C3409F003C1E8C0B9
:10F360008FEF81B90DC082B1809582B980E090E0C5
:10F37000E0EDF7E03197F1F70196883C9105C1F790
:10F380008091C00087FFEFCF12B8EFC08FEF84B934
:10F390000DC085B1809585B980E090E0E0EDF7E0A3
:10F3A0003197F1F70196883C9105C1F78091C00033
:10F3B00087FFEFCF15B8D9C08FEF87B90DC088B1DF
:10F3C000809588B980E090E0E0EDF7E03197F1F7C3
:10F3D0000196883C9105C1F78091C00087FFEFCF6F
:10F3E00018B8C3C08FEF8AB90DC08BB180958BB9A7
:10F3F00080E090E0E0EDF7E03197F1F70196883C8E
:10F400009105C1F78091C00087FFEFCF1BB8ADC059
:10F410008FEF8DB90DC08EB180958EB980E090E0F0
:10F42000E0EDF7E03197F1F70196883C9105C1F7DF
:10F430008091C00087FFEFCF1EB897C08FEF80BBD1
:10F440000DC081B3809581BB80E090E0E0EDF7E0F6
:10F450003197F1F70196883C9105C1F78091C00082
:10F4600087FFEFCF11BA81C08FEF83BB0DC084B38C
:10F47000809584BB80E090E0E0EDF7E03197F1F714
:10F480000196883C9105C1F78091C00087FFEFCFBE
:10F4900014BA6BC08FEF809301010FC080910201FD
:10F4A00080958093020180E090E0E0EDF7E03197F5
:10F4B000F1F70196883C9105C1F78091C00087FF64
:10F4C000EDCF1092020151C08FEF809304010FC065
:10F4D0008091050180958093050180E090E0E0ED4A
:10F4E000F7E03197F1F70196883C9105C1F78091DB
:10F4F000C00087FFEDCF1092050137C08FEF8093DA
:10F5000007010FC08091080180958093080180E079
:10F5100090E0E0EDF7E03197F1F70196883C910536
:10F52000C1F78091C00087FFEDCF109208011DC088
:10F530008FEF80930A010FC080910B01809580931B
:10F540000B0180E090E0E0EDF7E03197F1F70196F4
:10F55000883C9105C1F78091C00087FFEDCF1092E4
:10F560000B0103C085E292EEEEC98091C00087FFD7
:10F57000FCCF8091C600EAC988E392EEE4C98CE131
:10F5800091EEE1C988249924933011F1943028F444
:10F59000913089F09230B8F408C0953061F195301F
:10F5A000F0F0963009F048C043C02B3109F042C951
:10F5B00091E06BE13FC96227C15DDE4F2883CF52E6
:10F5C000D14092E037C9B22FA0E0622793E032C960
:10F5D000822F90E0A82BB92B622794E02BC92E3004
:10F5E00009F039C3622795E0C05DDE4F19821882A9
:10F5F000C053D1401FC9E1E0F0E0EC0FFD1FC05D3A
:10F60000DE4F08811981C053D140E00FF11F2083E4
:10F610000F5F1F4FC05DDE4F19830883C053D14079
:10F6200062270A171B0709F005C9D80196E002C92D
:10F63000261709F010C303C0973009F0FBC87724E0
:10F640009981933109F412C19431C8F4963009F4C8
:10F65000D8C0973050F4923009F406C1933009F4C1
:10F660006DC0913009F059C253C0913109F477C08F
:10F67000923108F0BBC0903109F04FC2F5C098310B
:10F6800009F487C0993150F4953109F4EFC09531F0
:10F6900008F4C6C1963109F040C2C2C19A3109F4DA
:10F6A0006CC09A3108F491C09B3109F45BC09D3164
:10F6B00009F033C29D81903359F48F81882311F46E
:10F6C0009EE11CC0813011F091E018C098E916C08D
:10F6D000892F807591F0903539F4E0E0F0E089E011
:10F6E0008093570094910AC0983539F4E3E0F0E034
:10F6F00089E080935700949101C090E01A821B82A8
:10F700008D818C831D829E831F8227E030E009C299
:10F710001A8288E08B8381E48C8386E58D8382E581
:10F720008E8389E48F8383E5888780E589878FE5E9
:10F730008A8782E38B872BE030E0F3C18A818139AD
:10F7400041F0823941F0803911F48FE005C080E04A
:10F7500003C082E001C08AE01A828B8344C0772410
:10F76000739482C08D81882311F48EE12CC0813086
:10F7700011F081E028C088E926C01A82E1E0F0E0BB
:10F7800089E08093570084918B831C8224E030E0D1
:10F79000C8C18B81803589F48C81883039F4E2E0EE
:10F7A000F0E089E08093570084910DC0E0E0F0E044
:10F7B00089E080935700849106C0E3E0F0E089E09F
:10F7C0008093570084911A82DFCF8D81836C99E0FA
:10F7D000E1E0F0E0082E90935700E89507B600FCB2
:10F7E000FDCF1A821B8223E030E09BC180EC8A832C
:10F7F000CE5CDE4F188219821A821B82C253D1401E
:10F800008EC18A8190E0A0E0B0E0582F44273327D2
:10F8100022278B8190E0A0E0B0E0DC0199278827C7
:10F82000282B392B4A2B5B2B8D8190E0A0E0B0E098
:10F83000282B392B4A2B5B2B8C8190E0A0E0B0E089
:10F84000BA2FA92F982F8827282B392B4A2B5B2BCF
:10F85000220F331F441F551FC05EDE4F288339839C
:10F860004A835B83C052D1401A8259C13A81C95C34
:10F87000DE4F3883C753D140CA5CDE4F1882C6536F
:10F88000D1408B81C82EDD24CA5CDE4F488159816E
:10F89000C653D140C42AD52A933109F082C0CE5C28
:10F8A000DE4F88819981AA81BB81C253D1408050AB
:10F8B000904CA340B04030F583E0CE5CDE4FE88052
:10F8C000F9800A811B81C253D140F70100935B008C
:10F8D00080935700E89507B600FCFDCFCE5CDE4F65
:10F8E000088119812A813B81C253D14000501F4FAA
:10F8F0002F4F3F4FCE5CDE4F088319832A833B8313
:10F90000C253D140C05EDE4F488159816A817B81FC
:10F91000C052D140DE011B9631E08C9111962C91A2
:10F9200011971296C75CDE4F2883C953D140C85C3B
:10F93000DE4F1882C853D14090E0C85CDE4FE881AA
:10F94000F981C853D1408E2B9F2B0C01FA01609393
:10F950005B0030935700E89511244E5F5F4F6F4F67
:10F960007F4F0EEFE02E0FEFF02ECE0CDF1CC114F8
:10F97000D10499F685E0C05EDE4F088119812A81A5
:10F980003B81C052D140F80120935B008093570027
:10F99000E89507B600FCFDCF81E180935700E8951C
:10F9A00035C0C05EDE4F88819981AA81BB81C0527B
:10F9B000D140B695A795979587957C018601ABE0D8
:10F9C000AA2EB12CAC0EBD1E0BC0D5016D915D01F0
:10F9D000C7010F947FFE0894E11CF11C01501040F8
:10F9E0000115110591F7A60160E070E0440F551F65
:10F9F000661F771FC05EDE4FE880F9800A811B8199
:10FA0000C052D1404E0D5F1D601F711F1A82C05E33
:10FA1000DE4F488359836A837B83C052D1407FC0C5
:10FA2000FA80C55CDE4FF882CB53D140C65CDE4F16
:10FA30001882CA53D1408B81C82EDD24C65CDE4FAC
:10FA400008811981CA53D140C02AD12A1A828981DA
:10FA5000BE016D5F7F4F843121F59601C05EDE4FA0
:10FA6000E880F9800A811B81C052D1400BBFF701A9
:10FA700087919691DB018C9311969C936E5F7F4FDB
:10FA8000D801C7010296A11DB11DC05EDE4F88835B
:10FA90009983AA83BB83C052D14022503040F1F6F3
:10FAA00036C0C05EDE4F288139814A815B81C052F9
:10FAB000D1400894C108D108760100E010E0089414
:10FAC000C11CD11C0894E11CF11C011D111DE20E8A
:10FAD000F31E041F151F21BDBB27A52F942F832FB5
:10FAE00082BD2F5F3F4F4F4F5F4FF89A80B5DB01CC
:10FAF0008D93BD012E153F054007510761F7C05E8C
:10FB0000DE4F288339834A835B83C052D1409601FC
:10FB10002D5F3F4FFB01108204C080EC8A8322E0FE
:10FB200030E08BE18093C6008091C00086FFFCCF5F
:10FB30008091C00080648093C000C15DDE4FF88179
:10FB4000CF52D140F093C6008091C00086FFFCCF19
:10FB50008091C00080648093C000432F3093C60022
:10FB60008091C00086FFFCCF8091C00080648093AC
:10FB7000C000922F2093C6008091C00086FFFCCF6A
:10FB80008091C00080648093C0008EE08093C600A6
:10FB90008091C00086FFFCCF8091C000806480937C
:10FBA000C00065E1C15DDE4FE880CF52D1406E25D7
:10FBB00069276427FE01319610C090819093C6009A
:10FBC0008091C00086FFFCCF31968091C000806498
:10FBD0008093C0006927215030402115310569F715
:10FBE0006093C6008091C00086FFFCCF8091C0006A
:10FBF00080648093C00085B1805885B9772081F4F6
:10FC0000C15DDE4F0881CF52D1400F5FC15DDE4F35
:10FC10000883CF52D14090E0A0E0B0E00D941AF4F8
:10FC200027982F9880E090E020ED37E0F901319798
:10FC3000F1F7019684369105C9F700008091C00064
:10FC40008D7F8093C00081E180935700E895EE2777
:10FC5000FF270994FFCF90E00D941AF497FB092E2B
:10FC600007260AD077FD04D02ED006D000201AF443
:10FC7000709561957F4F0895F6F7909581959F4F08
:10FC80000895A1E21A2EAA1BBB1BFD010DC0AA1FDD
:10FC9000BB1FEE1FFF1FA217B307E407F50720F0F5
:10FCA000A21BB30BE40BF50B661F771F881F991F70
:10FCB0001A9469F760957095809590959B01AC01B9
:10FCC000BD01CF010895AA1BBB1B51E107C0AA1FAC
:10FCD000BB1FA617B70710F0A61BB70B881F991FED
:10FCE0005A95A9F780959095BC01CD010895F99991
:10FCF000FECF92BD81BDF89A992780B50895262F31
:10FD0000F999FECF1FBA92BD81BD20BD0FB6F89400
:0EFD1000FA9AF99A0FBE01960895F894FFCF63
:00000001FF
