:100000000C9458010C9489010C9489010C94890179
:100010000C9489010C9489010C9489010C94890138
:100020000C9489010C9489010C9489010C94890128
:100030000C9489010C942B050C9489010C94890172
:100040000C9489010C94BF060C9489010C948901CD
:100050000C9489010C9489010C9489010C94EB0592
:100060000C9489010C94B5050C948B050C948901B2
:100070000C9489010C9489010C9489010C948901D8
:100080000C9491060C9489010C9489010C948901BB
:100090000C9489010C9489010C9489010C948901B8
:1000A0000C9489010C9489010C9463060C948901C9
:1000B0000C9489010C9489010C9489010C943506E7
:1000C0000C9489010C9489010C9489010C94890188
:1000D0000C9489010C9489010C9489010C94890178
:1000E0000C9489010C94FA090C94BB090C94E3015B
:1000F0000C9476020C9426030C940A030C948B0146
:100100000C94CF010C9404030C94EB020C94F109B1
:100110000C9400030C94F1010C9418030C94140A31
:100120000C94F3020C94C0010C944D0A0C94E5025B
:100130000C94FA020C94EF020C94740A0C940E03C3
:100140000C94DB090C94400A0C94330A0C941C03A5
:100150000C94670A0C94E8090C94210A0C94320759
:100160000C9429020C945A0A0C94CE090C94070A98
:100170000C9412030C9425030C9420030C94B509E1
:100180000C942A030C94F7020C94C109000021007E
:10019000240027002A002D00300033000101000058
:1001A000040107010A0100002200250028002B009D
:1001B0002E003100340002010000050108010B018E
:1001C0000200000A0B02090C0D0E080703040100CF
:1001D000000000000000000000000000000000001F
:1001E00000000000000000000000000000121110DC
:1001F00000000000000000000000000000000000FF
:10020000000000000000000000200023002600295C
:10021000002C002F0032000001000003010601093C
:100220000105050505070508080808020202020A7B
:100230000A08080404040401010101010101010389
:1002400003030303030303040707070C0C0C0C0C44
:100250000C0C0C0202020206060606060606060B37
:100260000B0B0B0B0B0B0B010210202008081020AE
:100270004010204080020102010804020101020432
:1002800008102040808040201008040201800402F1
:100290000180402010080402010804020101020448
:1002A000081020408001020408102040800032071E
:1002B00011241FBECFEFD1E2DEBFCDBF00E00CBFE7
:1002C00012E0A0E0B2E0EAE3F3E200E00BBF02C01C
:1002D00007900D92A632B107D9F724E0A6E2B2E06A
:1002E00001C01D92A830B207E1F711E0C8E5D1E0E6
:1002F00000E006C021970109802FFE010E948C11A9
:10030000C735D10780E00807A9F70E9497070C942A
:100310009B110C940000AF92BF92CF92DF92EF92AC
:10032000FF920F931F93CF93DF936C017B018B019F
:10033000040F151FEB015E01AE18BF08C017D107EF
:1003400059F06991D601ED91FC910190F081E02D79
:10035000C6011995892B79F7C501DF91CF911F91BE
:100360000F91FF90EF90DF90CF90BF90AF900895E6
:1003700042E050E063E272E082EC92E00C948B0188
:10038000FC01538D448D252F30E0842F90E0821B9B
:10039000930B541710F0CF96089501970895FC0120
:1003A000918D828D981761F0A28DAE0FBF2FB11D78
:1003B0005D968C91928D9F5F9F73928F90E00895D0
:1003C0008FEF9FEF0895FC01918D828D981731F08A
:1003D000828DE80FF11D858D90E008958FEF9FEFDE
:1003E0000895FC01918D228D892F90E0805C9F4FB4
:1003F000821B91098F739927089582EC92E00E94E5
:10040000F10121E0892B09F420E0822F0895FC01FD
:10041000A48DA80FB92FB11DA35ABF4F2C91848D65
:1004200090E001968F739927848FA689B7892C93C2
:10043000A089B1898C91837080648C93938D848D15
:10044000981306C00288F389E02D80818F7D808318
:100450000895EF92FF920F931F93CF93DF93EC01D8
:1004600081E0888F9B8D8C8D98131AC0E889F9895B
:10047000808185FF15C09FB7F894EE89FF8960835E
:10048000E889F98980818370806480839FBF81E0DF
:1004900090E0DF91CF911F910F91FF90EF90089521
:1004A000F62E0B8D10E00F5F1F4F0F731127E02EFC
:1004B0008C8D8E110CC00FB607FCFACFE889F98934
:1004C000808185FFF5CFCE010E940702F1CFEB8D31
:1004D000EC0FFD2FF11DE35AFF4FF0829FB7F89408
:1004E0000B8FEA89FB8980818062CFCFCF93DF9326
:1004F000EC01888D8823B9F0AA89BB89E889F9893C
:100500008C9185FD03C0808186FD0DC00FB607FC70
:10051000F7CF8C9185FFF2CF808185FFEDCFCE01A3
:100520000E940702E9CFDF91CF91089580E090E02B
:10053000892B29F00E94FD0181110E94000080E0BA
:1005400090E0892B49F080E090E0892B29F00E940F
:10055000000081110E94000080E090E0892B49F0AA
:1005600080E090E0892B29F00E94000081110E9418
:10057000000080E090E0892B49F080E090E0892B3A
:1005800029F00E94000081110C9400000895815010
:10059000823108F05AC0E82FF0E08827ED52FD4F75
:1005A0008F4F0C948C11F302F702E502EB02EF027D
:1005B0002503FA02000304030A030E0312031803BF
:1005C0001C032503200326032A03809180008F77D4
:1005D000809380000895809180008F7DF9CF809175
:1005E0008000877FF5CF84B58F7784BD089584B56B
:1005F0008F7DFBCF8091B0008F778093B0000895FE
:100600008091B0008F7DF9CF809190008F7780939B
:1006100090000895809190008F7DF9CF8091900097
:10062000877FF5CF8091A0008F778093A0000895F9
:100630008091A0008F7DF9CF8091A000877FF5CFBA
:10064000809120018F77809320010895809120016F
:100650008F7DF9CF80912001877FF5CF1F93CF93B6
:10066000DF93282F30E0F901EF53FE4F8491F90119
:10067000E959FD4FD491F901EF5DFD4FC491CC23B1
:10068000A9F0162F81110E94C702EC2FF0E0EE0FA7
:10069000FF1FEA55FE4FA591B4918FB7F894EC91E6
:1006A000111108C0D095DE23DC938FBFDF91CF916D
:1006B0001F910895DE2BF8CF9091000289130DC091
:1006C000E0ECF1E0E4919FEF90930002E230E1F082
:1006D00038F4EE2381F0E13089F060E00C942E03D1
:1006E000E43049F110F1E530C1F7909173009D7F3E
:1006F00090937300F2CF10926E00EFCF90916F0045
:100700009D7F90936F00E9CF909170009D7F9093B3
:10071000700091E09093B0009091B100987F946048
:100720009093B1001092B300D8CF909171009D7F4B
:1007300090937100D2CF909172009D7F9093720040
:10074000CCCFCF93DF9390E0FC01E959FD4F24918A
:100750008F5D9D4FFC0184918823D1F090E0880F3C
:10076000991FFC01E457FE4FA591B491FC01EA5595
:10077000FE4FC591D49161110EC09FB7F8948C9132
:10078000E22FE0958E238C932881E223E8839FBF9C
:10079000DF91CF9108958FB7F894EC91E22BEC9311
:1007A0008FBFF6CF3FB7F89480912F02909130021F
:1007B000A0913102B091320226B5A89B05C02F3F0F
:1007C00019F00196A11DB11D3FBFBA2FA92F982F77
:1007D0008827BC01CD01620F711D811D911D42E072
:1007E000660F771F881F991F4A95D1F708958F923A
:1007F0009F92AF92BF92CF92DF92EF92FF924B0106
:100800005C010E94D2036B017C010E94D2036C192F
:100810007D098E099F09683E734081059105A8F303
:1008200021E0821A9108A108B10888EEC80E83E081
:10083000D81EE11CF11C81149104A104B10429F714
:10084000FF90EF90DF90CF90BF90AF909F908F90F0
:100850000895AF92BF92CF92DF92EF92FF920F93E3
:100860001F93CF93DF936B017A01EC01C65DDD4FDF
:1008700028813CE0389F8001399F100D1124A09001
:10088000EF03B12C27FF1FC0FB011182108288816A
:100890008F5F888388819801280F311D87FD3A95E5
:1008A000F6012A153B051CF488818C30C4F1808147
:1008B0009181049680349C4908F473C0F6018081CC
:1008C0009181049670C088819801280F311D87FDA1
:1008D0003A952A153B05DCF68881A801480F511D81
:1008E00087FD5A95FA01EE0FFF1FE40FF51FE15A3D
:1008F000FC4F808186FFCBCF8881F801E80FF11D86
:1009000087FDFA95CF01EE0FFF1FE80FF91FE15A9F
:10091000FC4F808160E08F730E942E03B8CF8081EE
:1009200091812881A801420F511D27FD5A959A01F6
:10093000FA01EE0FFF1FE20FF31FE15AFC4F218176
:100940003281820F931FF701918380838881980100
:10095000280F311D87FD3A95F901EE0FFF1FE20FB9
:10096000F31FE15AFC4F808186FF22C08881080F67
:10097000111D87FD1A95F801EE0FFF1FE00FF11F03
:10098000E15AFC4F808161E08F73DF91CF911F911D
:100990000F91FF90EF90DF90CF90BF90AF900C94AD
:1009A0002E0380E49CE9F701918380838FEF888395
:1009B000DF91CF911F910F91FF90EF90DF90CF903B
:1009C000BF90AF900895FC01EE0FFF1FEA55FD4F59
:1009D00020813181232B39F421E030E031832083E1
:1009E00061E00C94A1030895682F82EC92E00C94CE
:1009F00029028FEF0E94F40485E50E94F4040C9410
:100A0000B8010F931F93CF93DF938B01D82FC92F7A
:100A100082E00E94F404C801AD2FBC2F809326020F
:100A200090932702A0932802B09329020E94F40415
:100A3000812F0E94F4048D2F0E94F4048C2FDF91EB
:100A4000CF911F910F910C94F4048FEF0E94F40446
:100A500085E50C94F4041F920F920FB60F921124A7
:100A60000BB60F922F933F934F935F936F937F93A8
:100A70008F939F93AF93BF93EF93FF93809149021E
:100A800090914A02A0914B02B0914C02892B8A2B83
:100A90008B2BE1F190913802E0913902F0913A020A
:100AA0008081892780838091490290914A02A09198
:100AB0004B02B0914C02181619061A061B069CF43C
:100AC0008091490290914A02A0914B02B0914C0250
:100AD0000197A109B1098093490290934A02A0931A
:100AE0004B02B0934C02FF91EF91BF91AF919F9158
:100AF0008F917F916F915F914F913F912F910F90C7
:100B00000BBE0F900FBE0F901F90189580910002A2
:100B10000E945C03E8CF1F920F920FB60F92112430
:100B20000BB60F922F933F934F935F936F937F93E7
:100B30008F939F93AF93BF93EF93FF9382EC92E0D9
:100B40000E940702FF91EF91BF91AF919F918F910A
:100B50007F916F915F914F913F912F910F900BBEBD
:100B60000F900FBE0F901F9018951F920F920FB607
:100B70000F9211240BB60F922F938F939F93EF93A5
:100B8000FF93E091D202F091D3028081E091D802EC
:100B9000F091D90282FD1DC090818091DB028F5FB0
:100BA0008F732091DC02821741F0E091DB02F0E0CC
:100BB000EE53FD4F958F8093DB02FF91EF919F9154
:100BC0008F912F910F900BBE0F900FBE0F901F9023
:100BD00018958081F2CF1F920F920FB60F921124B9
:100BE0002F933F938F939F93AF93BF938091650211
:100BF00090916602A0916702B091680230912E0236
:100C000023E0230F2D3758F50196A11DB11D209328
:100C10002E028093650290936602A0936702B093C0
:100C2000680280912F0290913002A0913102B09120
:100C300032020196A11DB11D80932F0290933002C4
:100C4000A0933102B0933202BF91AF919F918F91E7
:100C50003F912F910F900FBE0F901F90189526E88F
:100C6000230F0296A11DB11DD2CF1F920F920FB676
:100C70000F9211240BB60F922F933F934F935F93D4
:100C80006F937F938F939F93AF93BF93EF93FF9354
:100C900048E251E064E271E090E080E00E942904C3
:100CA000FF91EF91BF91AF919F918F917F916F9144
:100CB0005F914F913F912F910F900BBE0F900FBE00
:100CC0000F901F9018951F920F920FB60F9211243C
:100CD0000BB60F922F933F934F935F936F937F9336
:100CE0008F939F93AF93BF93EF93FF9348EA50E0A6
:100CF00064EA70E083E090E00E942904FF91EF91A4
:100D0000BF91AF919F918F917F916F915F914F9123
:100D10003F912F910F900BBE0F900FBE0F901F9021
:100D200018951F920F920FB60F9211240BB60F92C7
:100D30002F933F934F935F936F937F938F939F93E3
:100D4000AF93BF93EF93FF9348E950E064E970E0FD
:100D500082E090E00E942904FF91EF91BF91AF9152
:100D60009F918F917F916F915F914F913F912F91C3
:100D70000F900BBE0F900FBE0F901F9018951F92F3
:100D80000F920FB60F9211240BB60F922F933F9331
:100D90004F935F936F937F938F939F93AF93BF9383
:100DA000EF93FF9348E850E064E870E081E090E062
:100DB0000E942904FF91EF91BF91AF919F918F9174
:100DC0007F916F915F914F913F912F910F900BBE4B
:100DD0000F900FBE0F901F901895CF92DF92EF9259
:100DE000FF920F931F93E82FF92F05C001501109AF
:100DF0002109310961F1908196239417B9F305C057
:100E0000015011092109310911F1908196239413A0
:100E1000F7CFC12CD12CE12CF12C0AC08FEFC81ACE
:100E2000D80AE80AF80A0C151D052E053F0579F0C9
:100E300080818623841791F36C2D7D2D8E2D9F2D1F
:100E40001F910F91FF90EF90DF90CF90089560E099
:100E500070E080E090E01F910F91FF90EF90DF90A5
:100E6000CF9008951092C5021092C40288EE93E0CC
:100E7000A0E0B0E08093C6029093C702A093C8029E
:100E8000B093C90285E192E09093C3028093C202BD
:100E900085EC90E09093CF028093CE0284EC90E0BA
:100EA0009093D1028093D00280EC90E09093D30293
:100EB0008093D20281EC90E09093D5028093D4028B
:100EC00082EC90E09093D7028093D60286EC90E07B
:100ED0009093D9028093D8021092DB021092DC0228
:100EE0001092DD021092DE02E0EFF3E028E034E041
:100EF0004FEF68EB7BE08091EF038033B0F491E03B
:100F0000980F9093EF03808390E0DC01AA0FBB1F42
:100F1000A80FB91FA15ABC4F12967C936E931197DC
:100F200033962E173F0739F708954083F9CFCF93B3
:100F3000DF9300D01F92CDB7DEB7789484B582607E
:100F400084BD84B5816084BD85B5826085BD85B56D
:100F5000816085BD80916E00816080936E001092EB
:100F60008100809181008260809381008091810066
:100F700081608093810080918000816080938000F7
:100F80008091B10084608093B1008091B000816055
:100F90008093B00080919100826080939100809155
:100FA0009100816080939100809190008160809396
:100FB00090008091A10082608093A1008091A100A7
:100FC00081608093A1008091A00081608093A00047
:100FD00080912101826080932101809121018160B3
:100FE0008093210180912001816080932001809174
:100FF0007A00846080937A0080917A008260809386
:101000007A0080917A00816080937A0080917A00E2
:10101000806880937A001092C100E091D202F09132
:10102000D30282E08083E091CE02F091CF02108261
:10103000E091D002F091D10280E180831092DA0237
:10104000E091D602F091D70286E08083E091D4024D
:10105000F091D502808180618083E091D402F0918B
:10106000D502808188608083E091D402F091D5021E
:10107000808180688083E091D402F091D5028081E4
:101080008F7D8083198261E089810E94A10360E0E5
:1010900089810E942E0329812F5F29832E3099F7A1
:1010A00068EC70E080E090E00E94F7032224239433
:1010B000312C82EC92E00E94F1019A838983892B82
:1010C00009F4F9C582EC92E00E94F10118161906A4
:1010D00084F782EC92E00E94CF019091A0028535C6
:1010E00009F066C0911164C080919F028F3F29F47E
:1010F00031E030939E023093A00280919E028F5F78
:10110000843308F06DC080939E028091A0028823F2
:1011100081F280919D028111CCCF80919E0284301A
:1011200040F21092A00220916E02D0906F02ED2C3E
:10113000F12C30916D02323009F4A5C0333009F43E
:10114000C2C0313091F5273009F06CC04091700277
:101150004983842F90E02091A502211146C030934D
:10116000A502F0920402E09203029093020280939F
:101170000102F701EE0FFF1FEA55FD4F3182208279
:10118000880F991FFC01EA55FD4F3182208261E0F2
:101190008D2D0E94A10360E089810E94A10362E37A
:1011A00070E080E090E00E94F70310929E0281CFF1
:1011B00080939F02992309F4A0CFE0919E02E23030
:1011C00039F480939D02F0E0E759FD4F808395CF7D
:1011D000E330C8F390919D02915090939D02F3CF1C
:1011E00010929E021092A00290CF40910302509163
:1011F00004022091010230910202E416F50619F46E
:101200002817390791F2440F551FFA01EA55FD4F8F
:1012100011821082220F331FF901EA55FD4F11820E
:1012200010829FCF2091030230910402C701880FE2
:10123000991FE216F30639F0209101023091020263
:10124000E216F30681F41092A5021092A102109208
:10125000A2021092A3021092A4028A559D4FDC01B3
:101260001D921C92A2CF1092A5021092A102109280
:10127000A2021092A3021092A4028A559D4FFC0173
:101280001182108292CF8091030290910402E8169D
:10129000F90639F08091010290910202E816F906F0
:1012A00051F41092A5021092A1021092A202109283
:1012B000A3021092A402243009F4F6C33CF42130B6
:1012C000B1F02330E9F00E94F9046FCF253009F422
:1012D0000FC12830C1F72FB7F89480916502909123
:1012E0006602A0916702B09168022FBFECCFC701E0
:1012F0000E94E304609170028D2D0E942E03E3CFC3
:10130000C7010E94E304F0917002F98361E08D2D22
:101310000E94A1032981211102C060E0EDCF398133
:101320003F3F11F461E0E8CFF701EF53FE4FE49146
:10133000E150E23108F0D8C0F0E08827ED55F64FD3
:101340008F4F0C948C11B509BB09C109CE09DB097B
:10135000740AE809F109FA09070A140A210A330A8A
:10136000400A740A4D0A5A0A670A84B5806884BD27
:10137000E980E7BCA8CF84B5806284BDF980F8BC61
:10138000A2CF809180008068809380003981232FD4
:1013900030E0309389002093880095CF80918000C1
:1013A0008062809380005981452F50E050938B00DC
:1013B00040938A0088CF809180008860809380006D
:1013C0009981892F90E090938D0080938C007BCF42
:1013D0008091B00080688093B000E980E092B30013
:1013E00072CF8091B00080628093B000F980F0925B
:1013F000B40069CF8091900080688093900039811B
:10140000232F30E030939900209398005CCF809197
:1014100090008062809390005981452F50E0509356
:101420009B0040939A004FCF8091900088608093FA
:1014300090009981892F90E090939D0080939C006B
:1014400042CF8091A00080688093A0008091A0008E
:101450008F7B8093A000B981AB2FB0E0B093A9003F
:10146000A093A80030CF8091A00080628093A0005C
:10147000F981EF2FF0E0F093AB00E093AA0023CFC7
:101480008091A00088608093A000F980EF2CF12C5F
:10149000F092AD00E092AC0016CF80912001806800
:1014A000809320013981232F30E03093290120934C
:1014B000280109CF80912001806280932001598109
:1014C000452F50E050932B0140932A01FCCE809190
:1014D00020018860809320019981892F90E090936A
:1014E0002D0180932C01EFCEE980E7FC1BCF15CFB7
:1014F000C7010E94E30480917002809333028091BF
:1015000071028093340220913302309134023C8383
:101510002B838091720280933302809173028093B7
:10152000340240913302509134025A834983141695
:1015300015060CF0B5C2809100028D11CEC0E0EC12
:10154000F1E0149117FDBFCE61E08D2D0E94A10343
:101550001123B9F0EB80FC804701B12CA12C60E095
:1015600072E18AE790E0A50197010E94B31069013A
:101570007A0181E0C81AD108E108F108123009F0B7
:101580000FC2EB80FC804701B12CA12C60E072E11E
:101590008AE790E0A50197010E94B31029013A0162
:1015A0007A01690121E0C21AD108E108F1083FEF90
:1015B000C316D104E104F10409F00CF4BDC160E4E8
:1015C00072E48FE090E0A50194010E94B3106901DC
:1015D0007A0181E0C81AD108E108F108123009F057
:1015E00062C182E09FEFC916D104E104F10409F061
:1015F0000CF46CC060E970ED83E090E0A50194010B
:101600000E94B31069017A01A1E0CA1AD108E10869
:10161000F10883E0BFEFCB16D104E104F10409F037
:101620000CF454C068E478EE81E090E0A5019401E8
:101630000E94B31069017A0181E0C81AD108E1085B
:10164000F10884E09FEFC916D104E104F104F1F13F
:10165000ECF164E274EF80E090E0A50194010E9457
:10166000B31069017A0181E0C81AD108E108F108D4
:1016700085E03FEFC316D104E104F10439F130F104
:1016800062E17AE780E090E0A50194010E94B31046
:1016900069017A01F1E0CF1AD108E108F10886E08A
:1016A0002FEFC216D104E104F10481F078F0730148
:1016B00062012AE0F594E794D794C7942A95D1F76C
:1016C00021E0C21AD108E108F10887E09091B10049
:1016D000987F892B8093B10036C18F3F09F0F3CDFD
:1016E000D0920002E0ECF1E01491812F1F3F09F449
:1016F000EACD123009F471C060F4112391F1113078
:1017000009F44AC087FDDFCD61E08D2D0E94A10361
:1017100021CF143009F4A6C008F483C0153091F726
:101720001092200110922101809121018860809304
:10173000210180912101816080932101F701EF5DFA
:10174000FD4FE491F0E0EE0FFF1FEA55FE4F85914B
:101750009491F701E959FD4FE491E093350215E0CA
:10176000F3CE14BC15BC84B5826084BD85B58160A0
:1017700085BDF701EF5DFD4FE491F0E0EE0FFF1F37
:10178000EA55FE4F85919491F701E959FD4FE49197
:10179000E0933C0210E0D8CE1092800010928100BD
:1017A00080918100886080938100809181008160B8
:1017B00080938100F701EF5DFD4FE491F0E0EE0FC3
:1017C000FF1FEA55FE4F85919491F701E959FD4FAE
:1017D000E491E0933B0211E0B7CE1092B00010927A
:1017E000B1008091B00082608093B0008091B10020
:1017F00081608093B100F701EF5DFD4FE491F0E06F
:10180000EE0FFF1FEA55FE4F8591949190933A0297
:1018100080933902F701E959FD4FE491E0933802D2
:1018200093CE109290001092910080919100886068
:101830008093910080919100816080939100F701E5
:10184000EF5DFD4FE491F0E0EE0FFF1FEA55FE4F14
:1018500085919491F701E959FD4FE491E0933702A6
:1018600013E072CE1092A0001092A1008091A1000E
:1018700088608093A1008091A10081608093A10085
:10188000F701EF5DFD4FE491F0E0EE0FFF1FEA5529
:10189000FE4F85919491F701E959FD4FE491E09352
:1018A000360214E051CEEFEFCE16D104E104F1047C
:1018B00009F00CF473C068E478EE81E090E0A501D3
:1018C00094010E94B31069017A01F1E0CF1AD108A6
:1018D000E108F10884E01111CCCE83E0EFEFCE16E1
:1018E000D104E104F10459F154F162E17AE780E0B6
:1018F00090E0A50194010E94B31069017A01A1E072
:10190000CA1AD108E108F10884E0BFEFCB16D10470
:10191000E104F104A1F098F0730162019AE0F594FA
:10192000E794D794C7949A95D1F731E0C31AD108B8
:10193000E108F10885E003C081E01111C7CE95B53B
:10194000987F892B85BD2B813C81220F331FA98174
:10195000BA810E94941128EE33E040E050E00E94EA
:10196000DD10123009F468C00CF0BFC2112309F475
:1019700054C0113009F0A7CCD0928900C0928800E1
:1019800020934D0230934E0240934F0250935002E9
:1019900080916F00826080936F0095CC82E0CDCF04
:1019A000C114D10491E0E906F104CCF068E478EECA
:1019B00081E090E0A50194010E94B31069017A01D1
:1019C000A1E0CA1AD108E108F10893E0113049F406
:1019D00080918100887F892B80938100B4CF91E032
:1019E000F5CF133039F480919100887F892B809353
:1019F0009100A9CF143039F48091A100887F892B00
:101A00008093A100A0CF153009F09DCF80912101D6
:101A1000887F892B8093210196CFC7BC20935102E8
:101A200030935202409353025093540280916E00BF
:101A3000826080936E0047CCC092B300209349022D
:101A400030934A0240934B0250934C0280917000B5
:101A500082608093700037CCD0929900C092980039
:101A60002093450230934602409347025093480228
:101A70008091710082608093710025CCD092A90082
:101A8000C092A80020934102309342024093430247
:101A9000509344028091720082608093720013CC54
:101AA0008D2D0E945C030FCCC7010E94E3040091BE
:101AB0007002053B08F007CCE5E5F2E090E080E03D
:101AC00021913191E216F30651F0232B09F0BFC0AA
:101AD000FC01EE0FFF1FEB5AFD4FF182E0829C01EB
:101AE000220F331F820F931FFC01E051FC4F108126
:101AF00081819281103308F04EC061E08D2D0E94EB
:101B0000A103212F30E05901AA0CBB1CF501E20F03
:101B1000F31FE15AFC4FBD2DBF73DB2E8081807C0B
:101B2000D82AD0824CE0812F642F0E948011849F9C
:101B3000B0011124F0E0E0E0DB01AE0FBF1FAD010A
:101B4000440F551FA40FB51FAD01415A5C4FDA0178
:101B50009C9196FD16C03196EC30F10569F7813005
:101B600009F07DC01092800082E080938100109285
:101B7000850010928400B19A80916F0082608093FA
:101B80006F00D501A20FB31FA15ABC4F8C91806486
:101B90008C9390E080E0103308F095CBE8E5EE2ED2
:101BA000E2E0FE2EE91AF10897FDF394EE0CFF1C1B
:101BB000EE0CFF1CE8E8F0E0E81BF10987FDF39567
:101BC000EE0FFF1FEE0FFF1FFA83E9834F01FF0F98
:101BD000AA08BB0897010F2C000C440B550B2819C1
:101BE00039094A095B09A02FB0E00E94D21024EB0A
:101BF00030E040E050E00E94B310820E931EA41E1D
:101C0000B51E29813A81821693063CF0FA82E98258
:101C10008E149F0414F49A82898249815A81425019
:101C20005109440F551F5A8349834FB7F894212F08
:101C300030E0C901880F991F820F931FFC01E15A00
:101C4000FC4F89819A81928381834FBF3CCB01965F
:101C50008830910509F034CF90E080E040CF8230A9
:101C600061F4109290008093910010929500109270
:101C7000940088BB8093710084CF833069F4109204
:101C8000A00082E08093A1001092A5001092A40011
:101C900089BB8093720075CF811173CF10922001A0
:101CA00082E08093210110922501109224018ABBC9
:101CB0008093730066CF6FE070E080E090E00E9458
:101CC000F70356EAE52E52E0F52ED7010D911D914E
:101CD0007D010115110509F03DC0B98060E08B2D33
:101CE0000E94A1030E942505E981FA81EF53FE4F6E
:101CF0008491E981FA81E959FD4FC490E981FA8123
:101D0000EF5DFD4FD490DD2099F081110E94C70254
:101D1000ED2DF0E0EE0FFF1FE95FFD4FA591B491AF
:101D2000EC91CE2291E080E009F490E0092F182F89
:101D3000B801110F880B990B0E94960F0E940105A4
:101D40008B2D0E94F40481E00E94F4040E94B801EB
:101D50000E94F904E981FA813196FA83E9833E977A
:101D600009F0B3CF25E032E03A83298310E0A9815E
:101D7000BA818D919D91BA83A983892B61F50E94C7
:101D8000250580917B00877F80937B00812F806475
:101D900080937C0080917A00806480937A008091A7
:101DA0007A0086FDFCCF8091780060917900762FD3
:101DB000682F072E000C880B990B0E94960F0E942B
:101DC0000105812F0E94F40482E00E94F4040E9425
:101DD000B8010E94F9041F5F163049F68091A502F0
:101DE000882309F470C0E0900302E98260E08E2D40
:101DF0000E942E0383E090E00197F1F761E0898172
:101E00000E942E0383E290E00197F1F760E0898160
:101E10000E942E0380910102909102029927FC01F9
:101E2000E959FD4F6491FC01EF5DFD4FE491F0E055
:101E3000EE0FFF1FE95FFD4F8591949100E315E7D9
:101E400020E030E0462F0E94ED0661157105810506
:101E5000910529F06F5F7F4F8F4F9F4F9F700E94BA
:101E6000940F20E030E048EE51E40E940E1120E093
:101E700030E040E05FE30E94F50F6B017C0120E061
:101E800030E0A9010E948F0F811126C0C090A102ED
:101E9000D090A202E090A302F090A4020E94250537
:101EA000C701B6010E940105809103020E94F4045B
:101EB000809101020E94F40487E00E94F4040E94D1
:101EC000B8010E94F9046AE070E080E090E00E94AE
:101ED000F7030E949602EAC8C092A102D092A20221
:101EE000E092A302F092A402D9CF143009F4C6CD37
:101EF0000CF4B2CD153009F0E6C9D0922901C09298
:101F0000280120933D0230933E0240933F025093BC
:101F1000400280917300826080937300D4C90E9454
:101F2000D10F08F481E00895E89409C097FB3EF4CE
:101F300090958095709561957F4F8F4F9F4F992316
:101F4000A9F0F92F96E9BB279395F6958795779594
:101F50006795B795F111F8CFFAF4BB0F11F460FF54
:101F60001BC06F5F7F4F8F4F9F4F16C0882311F0AC
:101F700096E911C0772321F09EE8872F762F05C0C0
:101F8000662371F096E8862F70E060E02AF09A955B
:101F9000660F771F881FDAF7880F9695879597F950
:101FA0000895990F0008550FAA0BE0E8FEEF1616EA
:101FB0001706E807F907C0F012161306E407F5073D
:101FC00098F0621B730B840B950B39F40A2661F0B1
:101FD000232B242B252B21F408950A2609F4A14054
:101FE000A6958FEF811D811D08950E9408100C9405
:101FF00079100E946B1038F00E94721020F0952327
:1020000011F00C9462100C94681011240C94AD1013
:102010000E948A1070F3959FC1F3950F50E0551FF1
:10202000629FF001729FBB27F00DB11D639FAA272D
:10203000F00DB11DAA1F649F6627B00DA11D661F7C
:10204000829F2227B00DA11D621F739FB00DA11D9D
:10205000621F839FA00D611D221F749F3327A00D57
:10206000611D231F849F600D211D822F762F6A2FF3
:1020700011249F5750409AF0F1F088234AF0EE0F58
:10208000FF1FBB1F661F771F881F91505040A9F785
:102090009E3F510580F00C9462100C94AD105F3F90
:1020A000E4F3983ED4F3869577956795B795F795C1
:1020B000E7959F5FC1F7FE2B880F911D9695879539
:1020C00097F9089597F99F6780E870E060E00895B8
:1020D0009FEF80EC089500240A9416161706180640
:1020E0000906089500240A9412161306140605061C
:1020F0000895092E0394000C11F4882352F0BB0FAD
:1021000040F4BF2B11F460FF04C06F5F7F4F8F4F0F
:102110009F4F089557FD9058440F551F59F05F3F4A
:1021200071F04795880F97FB991F61F09F3F79F0F9
:1021300087950895121613061406551FF2CF46957B
:10214000F1DF08C0161617061806991FF1CF8695FD
:102150007105610508940895E894BB2766277727E1
:10216000CB0197F90895052E97FB1EF400940E9469
:10217000CA1057FD07D00E94DD1007FC03D04EF4B3
:102180000C94CA1050954095309521953F4F4F4F74
:102190005F4F089590958095709561957F4F8F4F13
:1021A0009F4F08950E94FF10A59F900DB49F900D22
:1021B000A49F800D911D11240895A1E21A2EAA1B3F
:1021C000BB1BFD010DC0AA1FBB1FEE1FFF1FA217E7
:1021D000B307E407F50720F0A21BB30BE40BF50BE4
:1021E000661F771F881F991F1A9469F7609570956D
:1021F000809590959B01AC01BD01CF010895A29FF0
:10220000B001B39FC001A39F700D811D1124911DCA
:10221000B29F700D811D1124911D08950E942211FD
:102220000C9479100E94721058F00E946B1040F0CC
:1022300029F45F3F29F00C94621051110C94AD10F9
:102240000C9468100E948A1068F39923B1F3552307
:1022500091F3951B550BBB27AA27621773078407B9
:1022600038F09F5F5F4F220F331F441FAA1FA9F34F
:1022700035D00E2E3AF0E0E832D091505040E6953D
:10228000001CCAF72BD0FE2F29D0660F771F881F9E
:10229000BB1F261737074807AB07B0E809F0BB0B91
:1022A000802DBF01FF2793585F4F3AF09E3F5105A5
:1022B00078F00C9462100C94AD105F3FE4F3983EFC
:1022C000D4F3869577956795B795F7959F5FC9F78E
:1022D000880F911D9695879597F90895E1E0660F0F
:1022E000771F881FBB1F621773078407BA0720F088
:1022F000621B730B840BBA0BEE1F88F7E0950895F1
:10230000991B79E004C0991F961708F0961B881F47
:102310007A95C9F780950895EE0FFF1F881F8BBF30
:102320000790F691E02D19940E94FF10B7FF0895D1
:0A233000821B930B0895F894FFCF71
:10233A00FF0C000D0000000000000000000000007B
:10234A00000000000029028B01C0017602F101CFD2
:06235A0001E3010D0A0081
:00000001FF
